:020000040800F2
:10000000D0070020C9010008770B0008C10A0008CA
:10001000750B000883020008891700080000000023
:10002000000000000000000000000000910E000829
:100030009509000800000000310D00084D1500086A
:10004000E3010008E3010008E3010008E301000800
:10005000E3010008E3010008E3010008E3010008F0
:10006000E3010008E3010008E30100089D06000821
:10007000E3010008E3010008E3010008E3010008D0
:10008000E3010008E3010008E3010008E3010008C0
:1000900065170008E3010008E3010008A90900084A
:1000A000E3010008E3010008E3010008E3010008A0
:1000B000E3010008E3010008E3010008E301000890
:1000C000E3010008E3010008E3010008E301000880
:1000D000E3010008E3010008E3010008E301000870
:1000E000A7090008E3010008AD15000800F002F8B8
:1000F00000F05AF80AA090E8000C82448344AAF168
:100100000107DA4501D100F04FF8AFF2090EBAE865
:100110000F0013F0010F18BFFB1A43F0010318473B
:10012000D0170000F01700000A444FF0000C10F840
:10013000013B13F0070408BF10F8014B1D1108BF65
:1001400010F8015B641E05D010F8016B641E01F805
:10015000016BF9D113F0080F1EBF10F8014BAD1C55
:100160000C1B09D16D1E58BF01F801CBFAD505E073
:1001700014F8016B01F8016B6D1EF9D59142D6D3CD
:10018000704700000023002400250026103A28BFF5
:1001900078C1FBD8520728BF30C148BF0B607047F9
:1001A0001FB51FBD10B510BD00F031F81146FFF7A7
:1001B000F7FF01F0FFFA00F04FF803B4FFF7F2FF8A
:1001C00003BC00F057F80000094880470948004781
:1001D000FEE7FEE7FEE7FEE7FEE7FEE7FEE7FEE7F7
:1001E000FEE7FEE704480549054A064B7047000054
:1001F0005D150008ED000008D0010020D0070020A8
:10020000D0030020D0030020704770477047754628
:1002100000F02CF8AE4605006946534620F0070072
:10022000854618B020B5FFF7DDFFBDE820404FF050
:1002300000064FF000074FF000084FF0000B21F0D0
:100240000701AC46ACE8C009ACE8C009ACE8C0099D
:10025000ACE8C0098D46704710B50446AFF3008086
:100260002046BDE81040FFF7A8BF000000487047D7
:100270006C01002001491820ABBEFEE726000200F9
:100280007047FEE7C1B2000A40EA01207047000053
:100290002DE9F84F0020ADF800004BF6BF7648F28C
:1002A00080084A4D4A4C40F68F7ADFF8289148F68C
:1002B0000F7B494F2FE0088810F00F0089F80000ED
:1002C00032D007EB8001D1F8002CADF80020BDF84A
:1002D000002012040BD5D1F8002C02EA0A02C1F862
:1002E000002C3E4901EB800050F8040C8047BDF81B
:1002F000000000060FD599F8000007EB8001D1F847
:10030000002C02EA0B02C1F8002C354901EB8000F9
:1003100050F8040C80472D4844300068314908806B
:100320000004C8D4BDE8F88F28682080208800F039
:1003300030006080208800F44050208028683040E1
:1003400080F4005080F0200040EA0800286008880F
:10035000C00617D4296801EA0B01296000F0B2FB3E
:1003600028E02188890401D580F400506188C906FD
:1003700028D46188890601D580F0200040EA080071
:100380002860CFE72868ADF80000BDF80000000540
:1003900006D5296801EA0A01296000F0ADFE09E0EE
:1003A000BDF800000004B6D5286800EA0A002860FD
:1003B00000F08AFC286821883040C904D1D580F437
:1003C0008050CEE780F01000D3E70000005C0040D2
:1003D00016000020040000200050004064000020AF
:1003E000480000203E000020810008480844D0F862
:1003F000001C490409D5D0F8001C48F68F72114042
:100400004CF280021143C0F8001C704700500040BD
:10041000810008480844D0F8001C490609D5D0F8E6
:10042000001C48F68F72114048F2C0021143C0F818
:10043000001C704700500040810006480844D0F876
:10044000001C48F68F62114048F280021143C0F848
:10045000001C704700500040174910B50A68918889
:1004600041BB062804D1117801F07F01012905D094
:10047000117801F07F0121290AD01BE09078222811
:1004800002D0212802D015E00C490CE00C490AE00A
:10049000032802D009280DD101E00A4903E00B4BE3
:1004A00009490920187029B10020916150828847BC
:1004B000002010BD022010BD08000020110500081A
:1004C000E9040008F504000859060008800000202F
:1004D000014900F0D7BE000090000020014900F063
:1004E000D1BE000088000020014900F0CBBE000012
:1004F000A000002008B104487047044901200968A1
:1005000008820020704700008400002008000020BE
:10051000014900F0B7BE00009800002005490968B5
:10052000C978042901D900207047034A02EBC101B0
:1005300000F0A8BE08000020D800002009B900285B
:1005400000D002207047000006490968097801F0D0
:100550007F01212901D10B2801D00220704700F032
:100560006FB8000008000020274810B5006800217F
:100570008172C1722549C9794172002000F08AFC5C
:100580004FF40071002000F041FD1021002000F028
:1005900025FD1821002000F0A9FC5821002000F0C2
:1005A000FFFC0020FFF748FF194890F82C100020AE
:1005B00000F0ACFC002000F0E1FC4FF4C061012031
:1005C00000F024FD4FF48071012000F0E9FC4FF4AD
:1005D0008271012000F08AFC0221012000F0F0FC71
:1005E0000221012000F092FC4FF44051012000F064
:1005F000ADFC2021012000F0F1FC002000F052FCB5
:1006000004490120086010BD08000020D817000828
:10061000A80000202001002004480068807A0028FB
:1006200002D0034905200860704700000800002040
:1006300020010020014904200860704720010020AB
:10064000034804490068C0784860002070470000F3
:10065000080000208000002008B1044870470449C9
:1006600002200968088200207047000081000020F5
:10067000080000207047704710B500F007FA0548E1
:1006800000240068847200F077FB01F06DF80248E6
:10069000046010BD08000020200100207047000009
:1006A0002DE9F047DFF89490254F4FF03008D9F846
:1006B000001001F11005088A0E7A08B9042E04D042
:1006C000AC88A04215D8042614E01E480178012900
:1006D00003D00726102038802BE01B4A0021126827
:1006E0001A4B120403EBD2325160A7F8008001705C
:1006F0001FE00226844200D90446A96820468847A4
:100700008246002000F0B4F901462246504601F02E
:100710003DF82146002000F053FC2888001B28806B
:10072000688820446880A7F8008009494FF4405049
:100730000880D9F800000672BDE8F08708000020A4
:100740001800002000000020505C004000600040C5
:10075000160000202DE9F047224EDFF88C8030276C
:10076000346834F8100FA168A9B100B3A588854298
:1007700000D905462846884781462088401B2080AE
:10078000608828446080002000F062F901462A4613
:10079000484600F0BDFA208848B114494FF4405053
:1007A00008800021084600F00BFCA8F800702088A3
:1007B000A188884201D3032001E020B105203168DF
:1007C0000872BDE8F08731680620087208490020E9
:1007D0000968084A090402EBD1314860A8F80070A2
:1007E000EFE700000800002018000020160000209D
:1007F000505C004000600040F8B55D4C5D4D09263E
:100800002068002729684278062A05D0AAB1082A5C
:100810004DD00A2A50D06BE00278520668D1807819
:10082000012804D0022804D0032804D060E0C9695C
:1008300056E0096A54E0496A52E04288B2BBC28875
:10084000022A55D102798ABB0278530601D18388E6
:1008500033B102F07F02012A04D0022A0CD047E013
:1008600045493DE08A69407900219047F0B9206808
:10087000807A0028F4D13BE0417901F00F0001F0CB
:1008800070020B063D4901EB8001D1F8001C03D535
:10089000C1F30111090102E0C1F301310903384B31
:1008A0001B78834224D90AB90029D9D120E00078E5
:1008B00040061DD1334913E0027802F07F02012A7D
:1008C00016D1827AA2B1428892B9027982B9C288DD
:1008D000012A0DD18A6940790021904740B92A49FF
:1008E00031B120684782816100208847002006E0FE
:1008F00029682068096940788847032813D021684F
:100900000A8AA2F57F43FF3B0BD002280ED06AB1C2
:100910000878000626D5C888009082420AD9088245
:1009200018E00E72F8BD20680672F8BD4FF008009E
:100930000872F8BD0ED22868144B90F82C00824241
:1009400001D21F7006E0B2FBF0F400FB142008B9DE
:1009500001201870286890F82C008882BDE8F840C3
:10096000FFF79EBE03200872094900030880F8BD06
:10097000080000200C000020C912000800500040B0
:10098000F80000205D120008A112000800000020FD
:1009900016000020704700000149012008707047D0
:1009A0001A00002070477047704700000149086036
:1009B00070470000140401401CB54FF48024204609
:1009C000FFF7F4FF00208DF8040008208DF80500E3
:1009D00001208DF806000094684600F001F81CBD67
:1009E00030B51A4A8379016853B313688B43136097
:1009F000111D0B680468A3430B60017911440B6857
:100A0000046823430B60114B083319680468A14341
:100A100019601C1D21680568A943216041791029CE
:100A200005D011440A68006802430A6030BD1968A5
:100A3000026811431960216800680143216030BDDC
:100A40000079104402688A43026030BD000401400E
:100A50000549096889B201EBC000044901EB400077
:100A6000008980B270470000505C00400060004088
:100A70000449096889B201EBC000034931F810004C
:100A800080B27047505C0040006000400A4810B5DA
:100A90000168001D0468001D006808180BD00822BA
:100AA000064900F03DF8054920460422BDE8104003
:100AB000103100F035B810BDE8F7FF1F220000200C
:100AC000FEE7000010B5134C2068017A022904D01B
:100AD000042902D0062905D015E0FFF7E1FD2068C2
:100AE000007A11E04178052909D10178490606D13B
:100AF000C07800F0D7F908480068006A80470748C6
:100B0000006880688047082021680872BDE81040AE
:100B100000F010B908000020100000200C00002098
:100B2000F0B500230A24302537261F4610E0B4EB29
:100B3000107F02D905EB107C01E006EB107C01F878
:100B400013C001EB430C00015B1C8CF80170DBB29D
:100B50009342ECD3F0BD00000448817A044809B107
:100B6000052100E00121016000F0F8BC3001002007
:100B700020010020FEE770477047000030B50F23CA
:100B8000C27801780125F2B1144A126801F1E0211E
:100B900002F4E062C2F5E062120AC2F10404D3403A
:100BA0004278A24084781C401443220181F800243A
:100BB000007800F01F018D404009800000F1E02026
:100BC000C0F8005130BD01F01F0085404809800089
:100BD00000F1E020C0F8805130BD00000CED00E0D5
:100BE0000249084302490860704700000000FA0506
:100BF0000CED00E070B52F4D296808784C7842065E
:100C000006D000F07F00012828D002282BD035E044
:100C1000092C06D0052C07D0032C0ED0012C14D0A3
:100C20002CE000F09BFB28E0C8787F282ED888783D
:100C300060BB888850BB887A27E0C87801281DD11E
:100C40008888D8B900F0A6FB17E0C878012815D12C
:100C5000888898B9487A80060AD40FE00B2C0DD109
:100C600000F0EEFB09E0012C02D0032C03D005E0DC
:100C700000F076FA01E000F09FFB58B10E492046E3
:100C8000096849698847032802D018B108200DE097
:100C900009200BE0094A062000211268084B1204C3
:100CA00003EBD2325160074A302111802968087263
:100CB00070BD0000080000200C000020505C0040C7
:100CC000006000401800002010B50F4C2068007A2A
:100CD000022811D004280FD0032804D0052802D000
:100CE000072805D008E0FFF735FD2068007A04E00A
:100CF00006480068C0688047082021680872BDE87F
:100D0000104000F017B80000080000200C00002080
:100D1000064B521C520803EB410105D031F8043B4D
:100D200020F8023B521EF9D17047000000600040DD
:100D3000704700000C4810B590F82C10002000F00F
:100D4000E5F80A480068007A082802D0092809D086
:100D500006E007494FF480500880064910200880BB
:100D6000002010BD012010BDA800002008000020B8
:100D7000160000201800002010B5012000F01AFC19
:100D80000648012101600021054A0160031D196028
:100D90004FF4E05111800160002010BD405C004024
:100DA00014000020034A516821F44041014351607E
:100DB0007047000000100240044A0029D16901D0A8
:100DC000014300E08143D161704700000010024000
:100DD0000149C1F8D8007047000042422DE9F041B6
:100DE000214C072800D0207020781F4D06260522B0
:100DF00004271E4906280BD2DFE800F0030C111669
:100E00001E27686810B12270BDE8F08100F030F84C
:100E10002670F9E700F02CF82770012022E002206C
:100E2000607003202070EFE76078401E607060788B
:100E30000028E9D12770E7E7086880B240F0100089
:100E4000086022700A206070DEE76078401E6070E3
:100E500060780028D8D1086880B220F010000860BF
:100E6000267000206860CFE728010020405C004029
:100E700010B5064C206880B220F004002060FFF717
:100E80006BFE4FF43F40206010BD0000405C00400E
:100E900070470000024920F007000860704700001A
:100EA000505C0040F0B50E490E4E48F68F770D7835
:100EB000002148F2800C0BE0CAB206EB8203D3F8A3
:100EC000004C3C40144344EA0C04C3F8004C491C59
:100ED000A942F1D3044940F080000860F0BD000051
:100EE000F8000020005000404C5C0040054A21F012
:100EF0000101126892B202EBC000034A02EB40000B
:100F000081607047505C0040006000400D4A1268EC
:100F10003E2992B202EBC0000B4A02EB400209D913
:100F20004809C90601D1401E80B24FF4004141EA90
:100F3000802004E04808C90700D0401C80021060EF
:100F400070470000505C00400C60004082000A487E
:100F50000244D2F8000C4BF68F731840CB0401D535
:100F600080F48050890401D580F4005048F280015B
:100F70000843C2F8000C7047005000408100074849
:100F80000844D0F8001C4BF68F72114081F4405198
:100F900048F280021143C0F8001C70470050004026
:100FA000054A21F00101126892B202EBC000034A27
:100FB00042F8101070470000505C00400060004094
:100FC000044A126892B202EBC000034A02EB4000EE
:100FD00041607047505C00400060004082000A4859
:100FE0000244D2F8000C48F6BF731840CB0601D576
:100FF00080F01000890601D580F0200048F28001C1
:101000000843C2F8000C70470050004082000548B9
:101010001044D0F8002C48F68F131A400A43C0F849
:10102000002C7047005000400CB50022264800926A
:101030000192016841F4803101604FF4A0630168BE
:1010400001F4003101910099491C0091019911B9F5
:1010500000999942F3D10168890333D501210191A7
:101060001A490A6842F010020A600A6822F0030274
:101070000A600A6842F002020A6041684160416801
:101080004160416841F480614160416821F47C1114
:101090004160416841F4E8114160016841F08071AC
:1010A000016001688901FCD5416821F003014160BC
:1010B000416841F0020141604168C1F381010229A8
:1010C000FAD10CBD01920CBD00100240002002407C
:1010D00010B54FF44040FFF765FEBDE81040FFF744
:1010E0006BBC10B50020FFF773FE0121BDE8104076
:1010F000C805FFF761BE000070B516480068174DBF
:101100000004C10B14480144098989B200EB410471
:101110002868017A09290FD021780170617841701F
:10112000A088FFF7AFF8296848802089FFF7AAF860
:1011300029688880A089C880286801210172C08838
:1011400028B1FFF759FBBDE87040FFF7F3BDFFF78B
:1011500051FDF8E7505C00400060004008000020AE
:101160002DE9F04138480068017811F07F0102D084
:10117000022905D066E0417A01F0DF0141724EE0BC
:10118000418800295ED10179F1BB4179304D21F0D0
:1011900080040A0605EB84022C4BD2F8002C03D500
:1011A000C2F30112120102E0C2F3013212031E78EF
:1011B0002346A64246D93AB3807A28B308064FEAB6
:1011C00084000ED52844D0F8000CC0F3011001288B
:1011D00021D11846FFF71CF920463021FFF7FEFE0B
:1011E00019E04619D6F8000CC0F30130012812D1DD
:1011F0004BF68F7748F28008A4B11846FFF7F4F851
:10120000D6F8000C384000E01CE080F4405040EA82
:101210000800C6F8000C0F480068406980470020AD
:10122000BDE8F0810C4890F82C100020FFF76EFE0E
:10123000D5F8000C384080F4405040EA0800C5F86A
:10124000000CE8E70220EBE708000020F80000208F
:101250000050004010000020A800002010B5074CEE
:1012600030B1074800680068804720680A3010BD28
:10127000216801200882002010BD00000800002025
:1012800010000020054A13685A8A10B108681044FB
:1012900070478888801A1882002070470800002054
:1012A00010B5074C30B10748006880688047206857
:1012B0000C3010BD216801200882002010BD000004
:1012C0000800002010000020204910B5096860B116
:1012D0001F48002202800A7853060AD002F07F02DB
:1012E000012A16D0022A16D001E00220088200202E
:1012F00010BD497A8A06027802D542F0020201E066
:1013000002F0FD0249060270D1B211D401F0FE01D3
:1013100010E00F4810BD49790A070B060D4901EB93
:101320009261D1F8001C07D5C1F3011106E00178E4
:1013300041F00101017003E0C1F301310129F6D050
:101340000548006800698047E3E7000008000020C6
:101350000200002000500040100000200A4810B594
:1013600000680A4AC1785278914203D882780AB953
:1013700082880AB1022010BD817205480068406869
:101380008047002010BD000008000020F800002069
:1013900010000020064810B50068417A41F0200195
:1013A000417204480068C0698047002010BD0000F9
:1013B000080000201000002070B51D481D4D026877
:1013C000517921F0800005EB80000B06D0F8003C3D
:1013D00021F0800403D5C3F301131B0102E0C3F322
:1013E00001331B03144D2D78A54210D9548874B9CC
:1013F0006BB1927A5AB10906D0F8001C48F280020B
:1014000007D548F6BF73194081F0100106E00220AD
:1014100070BD4BF68F73194081F480511143C0F8B1
:10142000001C0648006880698047002070BD0000ED
:101430000800002000500040F800002010000020AC
:1014400010B50E4C0E4A20681268C1789269407936
:10145000904721688A7A22B118B9087908B9887842
:1014600008B1022010BD07480068C06880472068A6
:101470004179C172C1780173002010BD08000020BD
:101480000C00002010000020F8B52B4B002000902D
:1014900019682A4C2A4A89B204EB8005D5F8005C09
:1014A000ADB242F82050401C0828F5D341F48060CA
:1014B000186040F00100186020F001051D601E4911
:1014C000091D08684005FCD54FF6FF300860002074
:1014D00052F8206004EB8007B6B2C7F8006C401CDD
:1014E0000828F5D345F008001860186880B240F06D
:1014F00004001860134A10680090106820F0030080
:1015000040F0010010601048046844F004040460D6
:101510000C68E40401D430BF09E04EF6FF740C609F
:10152000196889B221F008011960009911600168F9
:1015300021F004010160F8BD405C00400050004013
:101540004C0100200070004010ED00E002480168EE
:10155000491E0160704700001C0000200F4810B5B4
:10156000016841F00101016041680D4A114041608C
:1015700001680C4A11400160016821F4802101607A
:10158000416821F4FE0141604FF41F018160FFF7C3
:101590004BFD05494FF00060086010BD001002408F
:1015A0000000FFF8FFFFF6FE08ED00E04FF480209A
:1015B000FFF7FCB9704700000649054802220860A1
:1015C0000272064A0448C1E90102006800470000AF
:1015D0003001002008000020A8000020FC000020AE
:1015E00038B54FF4A060FFF7FBFA14208DF8000027
:1015F00001248DF8014000258DF802508DF803403C
:101600006846FFF7BBFA2A208DF800008DF80150DC
:101610008DF803406846FFF7B1FA38BD2DE9F04177
:101620004A4D88B000242868494E70807088494F20
:1016300039880840000401D5FEF72AFE70883988F1
:101640004FF6FF380840400504D5C5F800804248F1
:1016500040688047718838880140890402D54DF67A
:10166000FF71296071880140C80405D54EF6FF70EE
:1016700028600020FFF7B2FB708839880840000519
:101680000BD53648007810B1FFF7FEFE02E00220CD
:10169000FFF7A4FB4FF2FF70286071883888014083
:1016A000890505D54FF6FF5129603178491C317005
:1016B00071880140C80545D54FF6FF602860234872
:1016C000001D00684FF00003000437D57068401C0F
:1016D00070607068032832D91C48001F0168090730
:1016E0002DD4016889B2B1601D496A4601EB8407B7
:1016F000D7F8007CBFB242F82470641C082CF5D3E4
:10170000B46844F00104B460B468A4B20460B4687E
:1017100024F00104B460B468A4B2046028684005F1
:10172000FCD5C5F80080002052F8204001EB800570
:10173000A4B2C5F8004C401C0828F5D373600720FC
:10174000FFF74CFB08B0BDE8F0810000445C0040AE
:101750003C00002014000020A800002024010020EC
:1017600000500040FFF75ABF0549002008600549B6
:101770004FF43F4008800249091F0860002070476D
:10178000445C004014000020FEE70000084B10B548
:10179000521C520803EB410109D010F8013B521EC4
:1017A00010F8014B43EA042321F8043BF5D110BDA6
:1017B00000600040FFF78CFCFFF712FFFFF791FC81
:1017C000FFF7FAFEFEE7120100020000004083046A
:1017D000505700020102030109022900010100C063
:1017E0003209040000020300000009211001000179
:1017F00022A3000705810302002007050103020060
:101800002006FF000901A10185010901150025013C
:1018100075089501B182850109019182850209024D
:101820001500250175089501B18285020902918292
:10183000850309031500250175089501B18285030B
:101840000903918285040904150025017508950195
:10185000B1828504090491828505090515002501D9
:101860007501818209057501B1827507818385053E
:101870007507B1838506090615002501750181826A
:1018800009067501B1827507818385067507B183E5
:1018900085070907150026FF00750881828507095D
:1018A00007B182C0040309042603530054004D000D
:1018B0006900630072006F0065006C0065006300E2
:1018C000740072006F006E006900630073002003F3
:1018D000530054004D0033003200200043007500D7
:1018E000730074006D0020004800490044000000AF
:1018F0001019000800000020300100002801000835
:101900009019000830010020A006000084010008A2
:10191000011A5201141A03531254124D1233021DAC
:10192000321399090C1408790B040A19A51C8113A8
:10193000C6173308121AD8082A297E12183308A3AA
:101940001AEA103209137906140869051B0875088C
:101950001A77041359041B0849101A3D041ADD0CA8
:101960001AD1041A1D0C4132401AA44032041AA89C
:101970000832261ACE083220190433201A1A02DF40
:1019800029801A194C09169C1A351C41192B9100F3
:04000005080000ED02
:00000001FF
